{
  "contractName": "Transactions",
  "abi": [
    {
      "constant": false,
      "inputs": [
        {
          "name": "_to",
          "type": "address"
        },
        {
          "name": "_money",
          "type": "uint256"
        }
      ],
      "name": "transferFromOwner",
      "outputs": [
        {
          "name": "",
          "type": "bool"
        }
      ],
      "payable": false,
      "stateMutability": "nonpayable",
      "type": "function"
    },
    {
      "constant": false,
      "inputs": [],
      "name": "kill",
      "outputs": [],
      "payable": false,
      "stateMutability": "nonpayable",
      "type": "function"
    },
    {
      "constant": true,
      "inputs": [],
      "name": "getPeople",
      "outputs": [
        {
          "name": "",
          "type": "bytes32[]"
        },
        {
          "name": "",
          "type": "bytes32[]"
        },
        {
          "name": "",
          "type": "uint256[]"
        }
      ],
      "payable": false,
      "stateMutability": "view",
      "type": "function"
    },
    {
      "constant": false,
      "inputs": [
        {
          "name": "_personId",
          "type": "address"
        },
        {
          "name": "_firstName",
          "type": "bytes32"
        },
        {
          "name": "_lastName",
          "type": "bytes32"
        }
      ],
      "name": "addPerson",
      "outputs": [
        {
          "name": "success",
          "type": "bool"
        }
      ],
      "payable": false,
      "stateMutability": "nonpayable",
      "type": "function"
    },
    {
      "constant": true,
      "inputs": [],
      "name": "getTransactions",
      "outputs": [
        {
          "name": "",
          "type": "address[]"
        },
        {
          "name": "",
          "type": "address[]"
        },
        {
          "name": "",
          "type": "uint256[]"
        }
      ],
      "payable": false,
      "stateMutability": "view",
      "type": "function"
    },
    {
      "constant": false,
      "inputs": [
        {
          "name": "_from",
          "type": "address"
        },
        {
          "name": "_to",
          "type": "address"
        },
        {
          "name": "_money",
          "type": "uint256"
        }
      ],
      "name": "transfer",
      "outputs": [
        {
          "name": "",
          "type": "bool"
        }
      ],
      "payable": false,
      "stateMutability": "nonpayable",
      "type": "function"
    },
    {
      "constant": true,
      "inputs": [
        {
          "name": "_personId",
          "type": "address"
        }
      ],
      "name": "getBalance",
      "outputs": [
        {
          "name": "_balance",
          "type": "uint256"
        }
      ],
      "payable": false,
      "stateMutability": "view",
      "type": "function"
    },
    {
      "inputs": [],
      "payable": false,
      "stateMutability": "nonpayable",
      "type": "constructor"
    }
  ],
  "bytecode": "0x6060604052341561000f57600080fd5b33600260006101000a81548173ffffffffffffffffffffffffffffffffffffffff021916908373ffffffffffffffffffffffffffffffffffffffff160217905550612710600360003373ffffffffffffffffffffffffffffffffffffffff1673ffffffffffffffffffffffffffffffffffffffff16815260200190815260200160002081905550611293806100a56000396000f300606060405260043610610083576000357c0100000000000000000000000000000000000000000000000000000000900463ffffffff1680630f18ac071461008857806341c0e1b5146100e25780634f995d08146100f7578063537e5e66146101f157806383920e901461025c578063beabacc814610356578063f8b2cb4f146103cf575b600080fd5b341561009357600080fd5b6100c8600480803573ffffffffffffffffffffffffffffffffffffffff1690602001909190803590602001909190505061041c565b604051808215151515815260200191505060405180910390f35b34156100ed57600080fd5b6100f56106b7565b005b341561010257600080fd5b61010a61074e565b60405180806020018060200180602001848103845287818151815260200191508051906020019060200280838360005b8381101561015557808201518184015260208101905061013a565b50505050905001848103835286818151815260200191508051906020019060200280838360005b8381101561019757808201518184015260208101905061017c565b50505050905001848103825285818151815260200191508051906020019060200280838360005b838110156101d95780820151818401526020810190506101be565b50505050905001965050505050505060405180910390f35b34156101fc57600080fd5b610242600480803573ffffffffffffffffffffffffffffffffffffffff169060200190919080356000191690602001909190803560001916906020019091905050610947565b604051808215151515815260200191505060405180910390f35b341561026757600080fd5b61026f610b28565b60405180806020018060200180602001848103845287818151815260200191508051906020019060200280838360005b838110156102ba57808201518184015260208101905061029f565b50505050905001848103835286818151815260200191508051906020019060200280838360005b838110156102fc5780820151818401526020810190506102e1565b50505050905001848103825285818151815260200191508051906020019060200280838360005b8381101561033e578082015181840152602081019050610323565b50505050905001965050505050505060405180910390f35b341561036157600080fd5b6103b5600480803573ffffffffffffffffffffffffffffffffffffffff1690602001909190803573ffffffffffffffffffffffffffffffffffffffff16906020019091908035906020019091905050610d9d565b604051808215151515815260200191505060405180910390f35b34156103da57600080fd5b610406600480803573ffffffffffffffffffffffffffffffffffffffff16906020019091905050611027565b6040518082815260200191505060405180910390f35b6000610426611070565b600260009054906101000a900473ffffffffffffffffffffffffffffffffffffffff1673ffffffffffffffffffffffffffffffffffffffff163373ffffffffffffffffffffffffffffffffffffffff1614151561048257600080fd5b82600360003373ffffffffffffffffffffffffffffffffffffffff1673ffffffffffffffffffffffffffffffffffffffff1681526020019081526020016000205410156104d257600091506106b0565b82600360003373ffffffffffffffffffffffffffffffffffffffff1673ffffffffffffffffffffffffffffffffffffffff1681526020019081526020016000206000828254039250508190555082600360008673ffffffffffffffffffffffffffffffffffffffff1673ffffffffffffffffffffffffffffffffffffffff1681526020019081526020016000206000828254019250508190555033816000019073ffffffffffffffffffffffffffffffffffffffff16908173ffffffffffffffffffffffffffffffffffffffff168152505083816020019073ffffffffffffffffffffffffffffffffffffffff16908173ffffffffffffffffffffffffffffffffffffffff168152505042816040018181525050600180548060010182816105fa91906110be565b9160005260206000209060030201600083909190915060008201518160000160006101000a81548173ffffffffffffffffffffffffffffffffffffffff021916908373ffffffffffffffffffffffffffffffffffffffff16021790555060208201518160010160006101000a81548173ffffffffffffffffffffffffffffffffffffffff021916908373ffffffffffffffffffffffffffffffffffffffff16021790555060408201518160020155505050600191505b5092915050565b600260009054906101000a900473ffffffffffffffffffffffffffffffffffffffff1673ffffffffffffffffffffffffffffffffffffffff163373ffffffffffffffffffffffffffffffffffffffff1614151561071357600080fd5b600260009054906101000a900473ffffffffffffffffffffffffffffffffffffffff1673ffffffffffffffffffffffffffffffffffffffff16ff5b6107566110f0565b61075e6110f0565b610766611104565b60006107706110f0565b6107786110f0565b610780611104565b600061078a611118565b6000805490509550856040518059106107a05750595b90808252806020026020018201604052509450856040518059106107c15750595b90808252806020026020018201604052509350856040518059106107e25750595b90808252806020026020018201604052509250600091505b858210156109335760008281548110151561081157fe5b9060005260206000209060030201606060405190810160405290816000820160009054906101000a900473ffffffffffffffffffffffffffffffffffffffff1673ffffffffffffffffffffffffffffffffffffffff1673ffffffffffffffffffffffffffffffffffffffff16815260200160018201546000191660001916815260200160028201546000191660001916815250509050806020015185838151811015156108ba57fe5b906020019060200201906000191690816000191681525050806040015184838151811015156108e557fe5b90602001906020020190600019169081600019168152505061090a8160000151611027565b838381518110151561091857fe5b906020019060200201818152505081806001019250506107fa565b848484985098509850505050505050909192565b6000610951611118565b600260009054906101000a900473ffffffffffffffffffffffffffffffffffffffff1673ffffffffffffffffffffffffffffffffffffffff163373ffffffffffffffffffffffffffffffffffffffff161415156109ad57600080fd5b84816000019073ffffffffffffffffffffffffffffffffffffffff16908173ffffffffffffffffffffffffffffffffffffffff1681525050838160200190600019169081600019168152505082816040019060001916908160001916815250503373ffffffffffffffffffffffffffffffffffffffff168573ffffffffffffffffffffffffffffffffffffffff16141515610a88576000600360008773ffffffffffffffffffffffffffffffffffffffff1673ffffffffffffffffffffffffffffffffffffffff168152602001908152602001600020819055505b60008054806001018281610a9c9190611156565b9160005260206000209060030201600083909190915060008201518160000160006101000a81548173ffffffffffffffffffffffffffffffffffffffff021916908373ffffffffffffffffffffffffffffffffffffffff160217905550602082015181600101906000191690556040820151816002019060001916905550505060019150509392505050565b610b30611188565b610b38611188565b610b40611104565b6000610b4a611188565b610b52611188565b610b5a611104565b6000610b64611070565b600180549050955085604051805910610b7a5750595b9080825280602002602001820160405250945085604051805910610b9b5750595b9080825280602002602001820160405250935085604051805910610bbc5750595b90808252806020026020018201604052509250600091505b85821015610d8957600182815481101515610beb57fe5b9060005260206000209060030201606060405190810160405290816000820160009054906101000a900473ffffffffffffffffffffffffffffffffffffffff1673ffffffffffffffffffffffffffffffffffffffff1673ffffffffffffffffffffffffffffffffffffffff1681526020016001820160009054906101000a900473ffffffffffffffffffffffffffffffffffffffff1673ffffffffffffffffffffffffffffffffffffffff1673ffffffffffffffffffffffffffffffffffffffff168152602001600282015481525050905080600001518583815181101515610cd057fe5b9060200190602002019073ffffffffffffffffffffffffffffffffffffffff16908173ffffffffffffffffffffffffffffffffffffffff168152505080602001518483815181101515610d1f57fe5b9060200190602002019073ffffffffffffffffffffffffffffffffffffffff16908173ffffffffffffffffffffffffffffffffffffffff168152505080604001518383815181101515610d6e57fe5b90602001906020020181815250508180600101925050610bd4565b848484985098509850505050505050909192565b6000610da7611070565b6000600360008773ffffffffffffffffffffffffffffffffffffffff1673ffffffffffffffffffffffffffffffffffffffff168152602001908152602001600020541480610e33575082600360008773ffffffffffffffffffffffffffffffffffffffff1673ffffffffffffffffffffffffffffffffffffffff16815260200190815260200160002054105b15610e41576000915061101f565b82600360008773ffffffffffffffffffffffffffffffffffffffff1673ffffffffffffffffffffffffffffffffffffffff1681526020019081526020016000206000828254039250508190555082600360008673ffffffffffffffffffffffffffffffffffffffff1673ffffffffffffffffffffffffffffffffffffffff1681526020019081526020016000206000828254019250508190555084816000019073ffffffffffffffffffffffffffffffffffffffff16908173ffffffffffffffffffffffffffffffffffffffff168152505083816020019073ffffffffffffffffffffffffffffffffffffffff16908173ffffffffffffffffffffffffffffffffffffffff16815250504281604001818152505060018054806001018281610f6991906110be565b9160005260206000209060030201600083909190915060008201518160000160006101000a81548173ffffffffffffffffffffffffffffffffffffffff021916908373ffffffffffffffffffffffffffffffffffffffff16021790555060208201518160010160006101000a81548173ffffffffffffffffffffffffffffffffffffffff021916908373ffffffffffffffffffffffffffffffffffffffff16021790555060408201518160020155505050600191505b509392505050565b6000600360008373ffffffffffffffffffffffffffffffffffffffff1673ffffffffffffffffffffffffffffffffffffffff168152602001908152602001600020549050919050565b606060405190810160405280600073ffffffffffffffffffffffffffffffffffffffff168152602001600073ffffffffffffffffffffffffffffffffffffffff168152602001600081525090565b8154818355818115116110eb576003028160030283600052602060002091820191016110ea919061119c565b5b505050565b602060405190810160405280600081525090565b602060405190810160405280600081525090565b606060405190810160405280600073ffffffffffffffffffffffffffffffffffffffff16815260200160008019168152602001600080191681525090565b815481835581811511611183576003028160030283600052602060002091820191016111829190611211565b5b505050565b602060405190810160405280600081525090565b61120e91905b8082111561120a57600080820160006101000a81549073ffffffffffffffffffffffffffffffffffffffff02191690556001820160006101000a81549073ffffffffffffffffffffffffffffffffffffffff02191690556002820160009055506003016111a2565b5090565b90565b61126491905b8082111561126057600080820160006101000a81549073ffffffffffffffffffffffffffffffffffffffff02191690556001820160009055600282016000905550600301611217565b5090565b905600a165627a7a72305820d50138e931d1c7d97b88664e6c7f89ce10705e802465ca079f1ff9a844e071060029",
  "source": "pragma solidity ^0.4.2;\n\ncontract Transactions {\n\n  // Array of Person instances\n  Person[] peopleArray;\n\n  // Array of Transaction intances\n  Transaction[] transactionArray;\n\n  // Address of the owner of the contract\n  address owner;\n\n  // Mapping of adresses with balance\n  mapping (address => uint) personToBalance;\n\n  // Constructor of contract for initial setups\n  function Transactions() {\n    owner = msg.sender;\n    personToBalance[msg.sender] = 10000;\n  }\n\n  // Structure of a Person object\n  struct Person {\n    address personId;\n    bytes32 firstName;\n    bytes32 lastName;\n  }\n\n  struct Transaction {\n    address sender;\n    address receiver;\n    uint timestamp;\n  }\n\n  // Adds conditions on who can execute the requested function\n  modifier onlyOwner {\n      if (msg.sender != owner)\n          throw;\n      _;\n  }\n\n  // Adding a person to the contract with initial balance of 0\n  function addPerson(address _personId, bytes32 _firstName, bytes32 _lastName) onlyOwner() returns (bool success) {\n    Person memory newPerson;\n    newPerson.personId = _personId;\n    newPerson.firstName = _firstName;\n    newPerson.lastName = _lastName;\n    if (_personId != msg.sender) {\n      personToBalance[_personId] = 0;\n    }\n    peopleArray.push(newPerson);\n    return true;\n  }\n\n  // Mapping the balance and the address\n  function getBalance(address _personId) constant returns(uint _balance) {\n    return personToBalance[_personId];\n  }\n\n  // Iterating over peopleArray in order to get a tuple containing each person of the conract\n  function getPeople() constant returns (bytes32[], bytes32[], uint[]) {\n\n    // Variable storing the length of people (like in C -> not dynamic sized)\n    uint length = peopleArray.length;\n\n    // Arrays to be returned\n    bytes32[] memory firstNames = new bytes32[](length);\n    bytes32[] memory lastNames = new bytes32[](length);\n    uint[] memory balances = new uint[](length);\n\n    // Looping through peopleArray\n    for (uint i = 0; i < length; i++) {\n      Person memory currentPerson;\n      currentPerson = peopleArray[i];\n      firstNames[i] = currentPerson.firstName;\n      lastNames[i] = currentPerson.lastName;\n      balances[i] = getBalance(currentPerson.personId);\n    }\n    return (firstNames, lastNames, balances);\n  }\n\n  function getTransactions() constant returns (address[], address[], uint[]) {\n\n    // Length of transaction array\n    uint length = transactionArray.length;\n\n    // Arrays to be returned\n    address[] memory senders = new address[](length);\n    address[] memory receivers = new address[](length);\n    uint[] memory timestamps = new uint[](length);\n\n    // Looping through peopleArray\n    for (uint i = 0; i < length; i++) {\n      Transaction memory currentTransaction;\n      currentTransaction = transactionArray[i];\n      senders[i] = currentTransaction.sender;\n      receivers[i] = currentTransaction.receiver;\n      timestamps[i] = currentTransaction.timestamp;\n    }\n    return (senders, receivers, timestamps);\n  }\n\n  // Transfer money from owner to other\n  function transferFromOwner(address _to, uint _money) onlyOwner() returns(bool) {\n    if (personToBalance[msg.sender] < _money) {\n      return false;\n    }\n    Transaction memory newTransaction;\n    personToBalance[msg.sender] -= _money;\n    personToBalance[_to] += _money;\n    newTransaction.sender = msg.sender;\n    newTransaction.receiver = _to;\n    newTransaction.timestamp = now;\n    transactionArray.push(newTransaction);\n    return true;\n  }\n\n  // Transfer from one adress to another address\n  function transfer(address _from, address _to, uint _money) returns(bool) {\n    if (personToBalance[_from] == 0 || personToBalance[_from] < _money) {\n      return false;\n    }\n    Transaction memory newTransaction;\n    personToBalance[_from] -= _money;\n    personToBalance[_to] += _money;\n    newTransaction.sender = _from;\n    newTransaction.receiver = _to;\n    newTransaction.timestamp = now;\n    transactionArray.push(newTransaction);\n    return true;\n  }\n\n  // Method used to remove the contract from the blockchain, in case the contract gets buggy\n  function kill() onlyOwner() {\n    selfdestruct(owner);\n  }\n}\n",
  "sourcePath": "/Users/antoineboxho/Developer/blockchain/Dapp/ethereum-dapp-transactions/contracts/Transactions.sol",
  "compiler": {
    "name": "solc",
    "version": "0.4.18+commit.9cf6e910.Emscripten.clang"
  },
  "schemaVersion": "1.0.1",
  "updatedAt": "2017-12-09T11:26:44.756Z"
}