{
  "contractName": "Transactions",
  "abi": [
    {
      "constant": false,
      "inputs": [
        {
          "name": "_to",
          "type": "address"
        },
        {
          "name": "_money",
          "type": "uint256"
        }
      ],
      "name": "transferFromOwner",
      "outputs": [
        {
          "name": "",
          "type": "bool"
        }
      ],
      "payable": false,
      "stateMutability": "nonpayable",
      "type": "function"
    },
    {
      "constant": true,
      "inputs": [],
      "name": "getPeople",
      "outputs": [
        {
          "name": "",
          "type": "bytes32[]"
        },
        {
          "name": "",
          "type": "bytes32[]"
        },
        {
          "name": "",
          "type": "uint256[]"
        }
      ],
      "payable": false,
      "stateMutability": "view",
      "type": "function"
    },
    {
      "constant": false,
      "inputs": [
        {
          "name": "_personId",
          "type": "address"
        },
        {
          "name": "_firstName",
          "type": "bytes32"
        },
        {
          "name": "_lastName",
          "type": "bytes32"
        }
      ],
      "name": "addPerson",
      "outputs": [
        {
          "name": "success",
          "type": "bool"
        },
        {
          "name": "",
          "type": "bytes32[]"
        },
        {
          "name": "",
          "type": "uint256[]"
        }
      ],
      "payable": false,
      "stateMutability": "nonpayable",
      "type": "function"
    },
    {
      "constant": true,
      "inputs": [
        {
          "name": "_personId",
          "type": "address"
        },
        {
          "name": "_firstName",
          "type": "bytes32"
        },
        {
          "name": "_lastName",
          "type": "bytes32"
        }
      ],
      "name": "getTransactions",
      "outputs": [
        {
          "name": "",
          "type": "address[]"
        },
        {
          "name": "",
          "type": "address[]"
        },
        {
          "name": "",
          "type": "uint256[]"
        }
      ],
      "payable": false,
      "stateMutability": "view",
      "type": "function"
    },
    {
      "constant": true,
      "inputs": [],
      "name": "owner",
      "outputs": [
        {
          "name": "",
          "type": "address"
        },
        {
          "name": "",
          "type": "address[]"
        },
        {
          "name": "",
          "type": "uint256[]"
        }
      ],
      "payable": false,
      "stateMutability": "view",
      "type": "function"
    },
    {
      "constant": true,
      "inputs": [
        {
          "name": "",
          "type": "uint256"
        },
        {
          "name": "_to",
          "type": "address"
        },
        {
          "name": "_money",
          "type": "uint256"
        }
      ],
      "name": "peopleArray",
      "outputs": [
        {
          "name": "personId",
          "type": "address"
        },
        {
          "name": "firstName",
          "type": "bytes32"
        },
        {
          "name": "lastName",
          "type": "bytes32"
        }
      ],
      "payable": false,
      "stateMutability": "view",
      "type": "function"
    },
    {
      "constant": false,
      "inputs": [
        {
          "name": "_from",
          "type": "address"
        },
        {
          "name": "_to",
          "type": "address"
        },
        {
          "name": "_money",
          "type": "uint256"
        }
      ],
      "name": "transfer",
      "outputs": [
        {
          "name": "",
          "type": "bool"
        }
      ],
      "payable": false,
      "stateMutability": "nonpayable",
      "type": "function"
    },
    {
      "inputs": [
        {
          "name": "",
          "type": "uint256"
        }
      ],
      "payable": false,
      "stateMutability": "view",
      "type": "function",
      "constant": true,
      "name": "transactionArray",
      "outputs": [
        {
          "name": "sender",
          "type": "address"
        },
        {
          "name": "receiver",
          "type": "address"
        },
        {
          "name": "timestamp",
          "type": "uint256"
        }
      ]
    },
    {
      "constant": true,
      "inputs": [
        {
          "name": "_personId",
          "type": "address"
        }
      ],
      "name": "personExists",
      "outputs": [
        {
          "name": "",
          "type": "bool"
        }
      ],
      "payable": false,
      "stateMutability": "view",
      "type": "function"
    },
    {
      "inputs": [
        {
          "name": "_personId",
          "type": "address"
        },
        {
          "name": "_firstName",
          "type": "bytes32"
        },
        {
          "name": "_lastName",
          "type": "bytes32"
        }
      ],
      "payable": false,
      "stateMutability": "view",
      "type": "function",
      "constant": true,
      "name": "getBalance",
      "outputs": [
        {
          "name": "_balance",
          "type": "uint256"
        }
      ]
    },
    {
      "inputs": [
        {
          "name": "_personId",
          "type": "address"
        },
        {
          "name": "_firstName",
          "type": "bytes32"
        },
        {
          "name": "_lastName",
          "type": "bytes32"
        }
      ],
      "payable": false,
      "stateMutability": "nonpayable",
      "type": "constructor"
    }
  ],
  "bytecode": "0x606060405234156200001057600080fd5b604051606080620017da8339810160405280805190602001909190805190602001909190805190602001909190505062000049620001d0565b83816000019073ffffffffffffffffffffffffffffffffffffffff16908173ffffffffffffffffffffffffffffffffffffffff16815250508281602001906000191690816000191681525050818160400190600019169081600019168152505060008054806001018281620000bf91906200020e565b9160005260206000209060030201600083909190915060008201518160000160006101000a81548173ffffffffffffffffffffffffffffffffffffffff021916908373ffffffffffffffffffffffffffffffffffffffff160217905550602082015181600101906000191690556040820151816002019060001916905550505083600260006101000a81548173ffffffffffffffffffffffffffffffffffffffff021916908373ffffffffffffffffffffffffffffffffffffffff160217905550612710600360008673ffffffffffffffffffffffffffffffffffffffff1673ffffffffffffffffffffffffffffffffffffffff16815260200190815260200160002081905550505050506200029c565b606060405190810160405280600073ffffffffffffffffffffffffffffffffffffffff16815260200160008019168152602001600080191681525090565b8154818355818115116200023e576003028160030283600052602060002091820191016200023d919062000243565b5b505050565b6200029991905b808211156200029557600080820160006101000a81549073ffffffffffffffffffffffffffffffffffffffff021916905560018201600090556002820160009055506003016200024a565b5090565b90565b61152e80620002ac6000396000f3006060604052600436106100a4576000357c0100000000000000000000000000000000000000000000000000000000900463ffffffff1680630f18ac07146100a95780634f995d0814610103578063537e5e66146101fd57806383920e90146102685780638da5cb5b14610362578063a4e1ca5a146103b7578063beabacc814610438578063c82ef8fb146104b1578063ebc0e0fb1461054e578063f8b2cb4f1461059f575b600080fd5b34156100b457600080fd5b6100e9600480803573ffffffffffffffffffffffffffffffffffffffff169060200190919080359060200190919050506105ec565b604051808215151515815260200191505060405180910390f35b341561010e57600080fd5b61011661082b565b60405180806020018060200180602001848103845287818151815260200191508051906020019060200280838360005b83811015610161578082015181840152602081019050610146565b50505050905001848103835286818151815260200191508051906020019060200280838360005b838110156101a3578082015181840152602081019050610188565b50505050905001848103825285818151815260200191508051906020019060200280838360005b838110156101e55780820151818401526020810190506101ca565b50505050905001965050505050505060405180910390f35b341561020857600080fd5b61024e600480803573ffffffffffffffffffffffffffffffffffffffff169060200190919080356000191690602001909190803560001916906020019091905050610a24565b604051808215151515815260200191505060405180910390f35b341561027357600080fd5b61027b610ba9565b60405180806020018060200180602001848103845287818151815260200191508051906020019060200280838360005b838110156102c65780820151818401526020810190506102ab565b50505050905001848103835286818151815260200191508051906020019060200280838360005b838110156103085780820151818401526020810190506102ed565b50505050905001848103825285818151815260200191508051906020019060200280838360005b8381101561034a57808201518184015260208101905061032f565b50505050905001965050505050505060405180910390f35b341561036d57600080fd5b610375610e1e565b604051808273ffffffffffffffffffffffffffffffffffffffff1673ffffffffffffffffffffffffffffffffffffffff16815260200191505060405180910390f35b34156103c257600080fd5b6103d86004808035906020019091905050610e44565b604051808473ffffffffffffffffffffffffffffffffffffffff1673ffffffffffffffffffffffffffffffffffffffff16815260200183600019166000191681526020018260001916600019168152602001935050505060405180910390f35b341561044357600080fd5b610497600480803573ffffffffffffffffffffffffffffffffffffffff1690602001909190803573ffffffffffffffffffffffffffffffffffffffff16906020019091908035906020019091905050610e9d565b604051808215151515815260200191505060405180910390f35b34156104bc57600080fd5b6104d26004808035906020019091905050611127565b604051808473ffffffffffffffffffffffffffffffffffffffff1673ffffffffffffffffffffffffffffffffffffffff1681526020018373ffffffffffffffffffffffffffffffffffffffff1673ffffffffffffffffffffffffffffffffffffffff168152602001828152602001935050505060405180910390f35b341561055957600080fd5b610585600480803573ffffffffffffffffffffffffffffffffffffffff169060200190919050506111a0565b604051808215151515815260200191505060405180910390f35b34156105aa57600080fd5b6105d6600480803573ffffffffffffffffffffffffffffffffffffffff169060200190919050506112c2565b6040518082815260200191505060405180910390f35b60006105f661130b565b82600360003373ffffffffffffffffffffffffffffffffffffffff1673ffffffffffffffffffffffffffffffffffffffff1681526020019081526020016000205410156106465760009150610824565b82600360003373ffffffffffffffffffffffffffffffffffffffff1673ffffffffffffffffffffffffffffffffffffffff1681526020019081526020016000206000828254039250508190555082600360008673ffffffffffffffffffffffffffffffffffffffff1673ffffffffffffffffffffffffffffffffffffffff1681526020019081526020016000206000828254019250508190555033816000019073ffffffffffffffffffffffffffffffffffffffff16908173ffffffffffffffffffffffffffffffffffffffff168152505083816020019073ffffffffffffffffffffffffffffffffffffffff16908173ffffffffffffffffffffffffffffffffffffffff1681525050428160400181815250506001805480600101828161076e9190611359565b9160005260206000209060030201600083909190915060008201518160000160006101000a81548173ffffffffffffffffffffffffffffffffffffffff021916908373ffffffffffffffffffffffffffffffffffffffff16021790555060208201518160010160006101000a81548173ffffffffffffffffffffffffffffffffffffffff021916908373ffffffffffffffffffffffffffffffffffffffff16021790555060408201518160020155505050600191505b5092915050565b61083361138b565b61083b61138b565b61084361139f565b600061084d61138b565b61085561138b565b61085d61139f565b60006108676113b3565b60008054905095508560405180591061087d5750595b908082528060200260200182016040525094508560405180591061089e5750595b90808252806020026020018201604052509350856040518059106108bf5750595b90808252806020026020018201604052509250600091505b85821015610a10576000828154811015156108ee57fe5b9060005260206000209060030201606060405190810160405290816000820160009054906101000a900473ffffffffffffffffffffffffffffffffffffffff1673ffffffffffffffffffffffffffffffffffffffff1673ffffffffffffffffffffffffffffffffffffffff168152602001600182015460001916600019168152602001600282015460001916600019168152505090508060200151858381518110151561099757fe5b906020019060200201906000191690816000191681525050806040015184838151811015156109c257fe5b9060200190602002019060001916908160001916815250506109e781600001516112c2565b83838151811015156109f557fe5b906020019060200201818152505081806001019250506108d7565b848484985098509850505050505050909192565b6000610a2e6113b3565b84816000019073ffffffffffffffffffffffffffffffffffffffff16908173ffffffffffffffffffffffffffffffffffffffff1681525050838160200190600019169081600019168152505082816040019060001916908160001916815250503373ffffffffffffffffffffffffffffffffffffffff168573ffffffffffffffffffffffffffffffffffffffff16141515610b09576000600360008773ffffffffffffffffffffffffffffffffffffffff1673ffffffffffffffffffffffffffffffffffffffff168152602001908152602001600020819055505b60008054806001018281610b1d91906113f1565b9160005260206000209060030201600083909190915060008201518160000160006101000a81548173ffffffffffffffffffffffffffffffffffffffff021916908373ffffffffffffffffffffffffffffffffffffffff160217905550602082015181600101906000191690556040820151816002019060001916905550505060019150509392505050565b610bb1611423565b610bb9611423565b610bc161139f565b6000610bcb611423565b610bd3611423565b610bdb61139f565b6000610be561130b565b600180549050955085604051805910610bfb5750595b9080825280602002602001820160405250945085604051805910610c1c5750595b9080825280602002602001820160405250935085604051805910610c3d5750595b90808252806020026020018201604052509250600091505b85821015610e0a57600182815481101515610c6c57fe5b9060005260206000209060030201606060405190810160405290816000820160009054906101000a900473ffffffffffffffffffffffffffffffffffffffff1673ffffffffffffffffffffffffffffffffffffffff1673ffffffffffffffffffffffffffffffffffffffff1681526020016001820160009054906101000a900473ffffffffffffffffffffffffffffffffffffffff1673ffffffffffffffffffffffffffffffffffffffff1673ffffffffffffffffffffffffffffffffffffffff168152602001600282015481525050905080600001518583815181101515610d5157fe5b9060200190602002019073ffffffffffffffffffffffffffffffffffffffff16908173ffffffffffffffffffffffffffffffffffffffff168152505080602001518483815181101515610da057fe5b9060200190602002019073ffffffffffffffffffffffffffffffffffffffff16908173ffffffffffffffffffffffffffffffffffffffff168152505080604001518383815181101515610def57fe5b90602001906020020181815250508180600101925050610c55565b848484985098509850505050505050909192565b600260009054906101000a900473ffffffffffffffffffffffffffffffffffffffff1681565b600081815481101515610e5357fe5b90600052602060002090600302016000915090508060000160009054906101000a900473ffffffffffffffffffffffffffffffffffffffff16908060010154908060020154905083565b6000610ea761130b565b6000600360008773ffffffffffffffffffffffffffffffffffffffff1673ffffffffffffffffffffffffffffffffffffffff168152602001908152602001600020541480610f33575082600360008773ffffffffffffffffffffffffffffffffffffffff1673ffffffffffffffffffffffffffffffffffffffff16815260200190815260200160002054105b15610f41576000915061111f565b82600360008773ffffffffffffffffffffffffffffffffffffffff1673ffffffffffffffffffffffffffffffffffffffff1681526020019081526020016000206000828254039250508190555082600360008673ffffffffffffffffffffffffffffffffffffffff1673ffffffffffffffffffffffffffffffffffffffff1681526020019081526020016000206000828254019250508190555084816000019073ffffffffffffffffffffffffffffffffffffffff16908173ffffffffffffffffffffffffffffffffffffffff168152505083816020019073ffffffffffffffffffffffffffffffffffffffff16908173ffffffffffffffffffffffffffffffffffffffff168152505042816040018181525050600180548060010182816110699190611359565b9160005260206000209060030201600083909190915060008201518160000160006101000a81548173ffffffffffffffffffffffffffffffffffffffff021916908373ffffffffffffffffffffffffffffffffffffffff16021790555060208201518160010160006101000a81548173ffffffffffffffffffffffffffffffffffffffff021916908373ffffffffffffffffffffffffffffffffffffffff16021790555060408201518160020155505050600191505b509392505050565b60018181548110151561113657fe5b90600052602060002090600302016000915090508060000160009054906101000a900473ffffffffffffffffffffffffffffffffffffffff16908060010160009054906101000a900473ffffffffffffffffffffffffffffffffffffffff16908060020154905083565b60008060006111ad6113b3565b6000805490509250600091505b828210156112b5576000828154811015156111d157fe5b9060005260206000209060030201606060405190810160405290816000820160009054906101000a900473ffffffffffffffffffffffffffffffffffffffff1673ffffffffffffffffffffffffffffffffffffffff1673ffffffffffffffffffffffffffffffffffffffff168152602001600182015460001916600019168152602001600282015460001916600019168152505090508473ffffffffffffffffffffffffffffffffffffffff16816000015173ffffffffffffffffffffffffffffffffffffffff1614156112a857600193506112ba565b81806001019250506111ba565b600093505b505050919050565b6000600360008373ffffffffffffffffffffffffffffffffffffffff1673ffffffffffffffffffffffffffffffffffffffff168152602001908152602001600020549050919050565b606060405190810160405280600073ffffffffffffffffffffffffffffffffffffffff168152602001600073ffffffffffffffffffffffffffffffffffffffff168152602001600081525090565b815481835581811511611386576003028160030283600052602060002091820191016113859190611437565b5b505050565b602060405190810160405280600081525090565b602060405190810160405280600081525090565b606060405190810160405280600073ffffffffffffffffffffffffffffffffffffffff16815260200160008019168152602001600080191681525090565b81548183558181151161141e5760030281600302836000526020600020918201910161141d91906114ac565b5b505050565b602060405190810160405280600081525090565b6114a991905b808211156114a557600080820160006101000a81549073ffffffffffffffffffffffffffffffffffffffff02191690556001820160006101000a81549073ffffffffffffffffffffffffffffffffffffffff021916905560028201600090555060030161143d565b5090565b90565b6114ff91905b808211156114fb57600080820160006101000a81549073ffffffffffffffffffffffffffffffffffffffff021916905560018201600090556002820160009055506003016114b2565b5090565b905600a165627a7a72305820bb06eede2fe982261e113a84604522a0b4df22e4d7cda28c8781fd6146e1a7490029",
  "source": "// Version of compiler\n// var contract = Transactions.deployed()\n// contract.then(function(instance) {return instance.getPeople()})\n// contract.then(function(instance) {return instance.getBalance.call(web3.eth.accounts[0])}).then(function(balance) {return balance})\n// contract.then(function(instance) {return instance.getBalance.call(web3.eth.accounts[0])}).then(function(balance) {return balance.toNumber()})\npragma solidity ^0.4.2;\n\ncontract Transactions {\n\n  /* State variables */\n  // Array of Person instances\n  Person[] public peopleArray;\n\n  // Array of Transaction intances\n  Transaction[] public transactionArray;\n\n  // Address of the owner of the contract\n  address public owner;\n\n  /*\n    Mapping of adresses with balance\n    This is the equivalent of creating an associative array\n    The key of the mapping is the address of the person and the value\n    is the balance that each person\n  */\n  mapping (address => uint) personToBalance;\n\n/**\n  Solidity does not let us pass a strings yet, so we have\n  to use bytes32 for the firstName and lastName\n */\n\n  // Structure of a Person object\n  struct Person {\n    address personId;\n    bytes32 firstName;\n    bytes32 lastName;\n  }\n\n  struct Transaction {\n    address sender;\n    address receiver;\n    uint timestamp;\n  }\n\n  /*\n    Constructor of contract for initial setups which is going to be\n    called once when we deploy the contract\n  */\n  function Transactions(address _personId, bytes32 _firstName, bytes32 _lastName) public {\n    Person memory newPerson;\n    newPerson.personId = _personId;\n    newPerson.firstName = _firstName;\n    newPerson.lastName = _lastName;\n    peopleArray.push(newPerson);\n    owner = _personId;\n    personToBalance[_personId] = 10000;\n  }\n\n  // Adding a person to the contract with initial balance of 0\n  function addPerson(address _personId, bytes32 _firstName, bytes32 _lastName) public returns (bool success) {\n    Person memory newPerson;\n    newPerson.personId = _personId;\n    newPerson.firstName = _firstName;\n    newPerson.lastName = _lastName;\n    if (_personId != msg.sender) {\n      personToBalance[_personId] = 0;\n    }\n    peopleArray.push(newPerson);\n    return true;\n  }\n\n  // Mapping the balance and the address\n  function getBalance(address _personId) public view returns (uint _balance) {\n    return personToBalance[_personId];\n  }\n\n  // Iterating over peopleArray in order to get a tuple containing each person of the conract\n  function getPeople() public view returns (bytes32[], bytes32[], uint[]) {\n\n    // Variable storing the length of people (like in C -> not dynamic sized)\n    uint length = peopleArray.length;\n\n    // Arrays to be returned\n    bytes32[] memory firstNames = new bytes32[](length);\n    bytes32[] memory lastNames = new bytes32[](length);\n    uint[] memory balances = new uint[](length);\n\n    // Looping through peopleArray\n    for (uint i = 0; i < length; i++) {\n      Person memory currentPerson;\n      currentPerson = peopleArray[i];\n      firstNames[i] = currentPerson.firstName;\n      lastNames[i] = currentPerson.lastName;\n      balances[i] = getBalance(currentPerson.personId);\n    }\n    return (firstNames, lastNames, balances);\n  }\n\n  function personExists(address _personId) public view returns (bool) {\n    uint length = peopleArray.length;\n    for (uint i = 0; i < length; i++) {\n      Person memory currentPerson = peopleArray[i];\n      if (currentPerson.personId == _personId) {\n        return true;\n      }\n    }\n    return false;\n  }\n\n  function getTransactions() public view returns (address[], address[], uint[]) {\n\n    // Length of transaction array\n    uint length = transactionArray.length;\n\n    // Arrays to be returned\n    address[] memory senders = new address[](length);\n    address[] memory receivers = new address[](length);\n    uint[] memory timestamps = new uint[](length);\n\n    // Looping through peopleArray\n    for (uint i = 0; i < length; i++) {\n      Transaction memory currentTransaction;\n      currentTransaction = transactionArray[i];\n      senders[i] = currentTransaction.sender;\n      receivers[i] = currentTransaction.receiver;\n      timestamps[i] = currentTransaction.timestamp;\n    }\n    return (senders, receivers, timestamps);\n  }\n\n\n  // Transfer money from owner to other\n  function transferFromOwner(address _to, uint _money) public returns(bool) {\n    if (personToBalance[msg.sender] < _money) {\n      return false;\n    }\n    Transaction memory newTransaction;\n    personToBalance[msg.sender] -= _money;\n    personToBalance[_to] += _money;\n    newTransaction.sender = msg.sender;\n    newTransaction.receiver = _to;\n    newTransaction.timestamp = now;\n    transactionArray.push(newTransaction);\n    return true;\n  }\n\n  // Transfer from one adress to another address\n  function transfer(address _from, address _to, uint _money) public returns(bool) {\n    if (personToBalance[_from] == 0 || personToBalance[_from] < _money) {\n      return false;\n    }\n    Transaction memory newTransaction;\n    personToBalance[_from] -= _money;\n    personToBalance[_to] += _money;\n    newTransaction.sender = _from;\n    newTransaction.receiver = _to;\n    newTransaction.timestamp = now;\n    transactionArray.push(newTransaction);\n    return true;\n  }\n}\n\n/*\n    When sending money from one address to another, you get this to the log:\n\n    truffle(default)> contract.transfer(pers2, pers1, 100)\n    '0xa7edcc943002ea0406fe8742197bf637c0457841061c76e6427a13109e4e41cf'\n\n    This hash corresponds to the transaction between pers2 and pers1, you can access\n    the info about this transaction like this:\n\n      web3.eth.getTransaction(\"0xabce85e979001aa29bc36efbbb6d3b2f75849702e7587d9193691469738ff6af\")\n\n    web3 is an object from web3 library that allows you to interact with the 'eth' or ethereum blockchain\n    through a bunch of mehods like 'getTransaction'. This is what you would get:\n\n    {\n      hash: '0xabce85e979001aa29bc36efbbb6d3b2f75849702e7587d9193691469738ff6af',\n      nonce: 7,\n      blockHash: '0x4f8a887e02090c2423153ebd17686ba8bda1e08e48a6471f66b7640eddeff080',\n      blockNumber: 8,\n      transactionIndex: 0,\n      from: '0x11989b1ad656a7a728bad8763d4a7c68b0fe7625',  // the owner of the contract is paying for the transaction cost\n      to: '0x336cc10032b4af8956777ab3ed2200bb4ea529e4', // Some random address\n      value: { [String: '0'] s: 1, e: 0, c: [ 0 ] },\n      gas: 4712388,\n      gasPrice: { [String: '100000000000'] s: 1, e: 11, c: [ 100000000000 ] },\n      input: '0x537e5e660000000000000000000000008d0fe3b090fd0185cb3ab1779ad57da30139fd8e4775696c6c61756d650000000000000000000000000000000000000000000000436172746f6e0000000000000000000000000000000000000000000000000000'\n    }\n\n*/\n",
  "sourcePath": "/Users/antoineboxho/Developer/blockchain/Dapp/ethereum-dapp-transactions/contracts/Transactions.sol",
  "compiler": {
    "name": "solc",
    "version": "0.4.18+commit.9cf6e910.Emscripten.clang"
  },
  "schemaVersion": "1.0.1",
  "updatedAt": "2017-12-09T18:46:25.404Z"
}